{
  "contractName": "CasinoDrive",
  "abi": [
    {
      "constant": true,
      "inputs": [
        {
          "name": "",
          "type": "uint256"
        }
      ],
      "name": "passengerList",
      "outputs": [
        {
          "name": "",
          "type": "address"
        }
      ],
      "payable": false,
      "stateMutability": "view",
      "type": "function"
    },
    {
      "constant": true,
      "inputs": [
        {
          "name": "",
          "type": "uint256"
        }
      ],
      "name": "driverList",
      "outputs": [
        {
          "name": "",
          "type": "address"
        }
      ],
      "payable": false,
      "stateMutability": "view",
      "type": "function"
    },
    {
      "inputs": [],
      "payable": false,
      "stateMutability": "nonpayable",
      "type": "constructor"
    },
    {
      "anonymous": false,
      "inputs": [
        {
          "indexed": false,
          "name": "driverAddress",
          "type": "address"
        }
      ],
      "name": "DriverEnrolled",
      "type": "event"
    },
    {
      "anonymous": false,
      "inputs": [
        {
          "indexed": false,
          "name": "driverAddress",
          "type": "address"
        }
      ],
      "name": "DriverCanceled",
      "type": "event"
    },
    {
      "anonymous": false,
      "inputs": [
        {
          "indexed": false,
          "name": "passengerAddress",
          "type": "address"
        }
      ],
      "name": "DriverAborted",
      "type": "event"
    },
    {
      "anonymous": false,
      "inputs": [
        {
          "indexed": false,
          "name": "passengerAddress",
          "type": "address"
        }
      ],
      "name": "DriverAccepted",
      "type": "event"
    },
    {
      "anonymous": false,
      "inputs": [
        {
          "indexed": false,
          "name": "passengerAddress",
          "type": "address"
        }
      ],
      "name": "DriverArrived",
      "type": "event"
    },
    {
      "anonymous": false,
      "inputs": [
        {
          "indexed": false,
          "name": "passengerAddress",
          "type": "address"
        }
      ],
      "name": "PassengerRequest",
      "type": "event"
    },
    {
      "anonymous": false,
      "inputs": [
        {
          "indexed": false,
          "name": "passengerAddress",
          "type": "address"
        }
      ],
      "name": "PassengerCanceled",
      "type": "event"
    },
    {
      "anonymous": false,
      "inputs": [
        {
          "indexed": false,
          "name": "driverAddress",
          "type": "address"
        }
      ],
      "name": "PassengerPickedUp",
      "type": "event"
    },
    {
      "constant": true,
      "inputs": [
        {
          "name": "driverAddress",
          "type": "address"
        }
      ],
      "name": "isDriver",
      "outputs": [
        {
          "name": "isIndeed",
          "type": "bool"
        }
      ],
      "payable": false,
      "stateMutability": "view",
      "type": "function"
    },
    {
      "constant": true,
      "inputs": [],
      "name": "getDriverCount",
      "outputs": [
        {
          "name": "driverCount",
          "type": "uint256"
        }
      ],
      "payable": false,
      "stateMutability": "view",
      "type": "function"
    },
    {
      "constant": true,
      "inputs": [
        {
          "name": "passengerAddress",
          "type": "address"
        }
      ],
      "name": "isPassenger",
      "outputs": [
        {
          "name": "isIndeed",
          "type": "bool"
        }
      ],
      "payable": false,
      "stateMutability": "view",
      "type": "function"
    },
    {
      "constant": true,
      "inputs": [],
      "name": "getPassengerCount",
      "outputs": [
        {
          "name": "passengerCount",
          "type": "uint256"
        }
      ],
      "payable": false,
      "stateMutability": "view",
      "type": "function"
    },
    {
      "constant": false,
      "inputs": [
        {
          "name": "name",
          "type": "string"
        }
      ],
      "name": "addDriverRequest",
      "outputs": [],
      "payable": false,
      "stateMutability": "nonpayable",
      "type": "function"
    },
    {
      "constant": false,
      "inputs": [],
      "name": "removeDriver",
      "outputs": [],
      "payable": false,
      "stateMutability": "nonpayable",
      "type": "function"
    },
    {
      "constant": false,
      "inputs": [],
      "name": "cancelDriverRequest",
      "outputs": [
        {
          "name": "",
          "type": "bool"
        }
      ],
      "payable": true,
      "stateMutability": "payable",
      "type": "function"
    },
    {
      "constant": false,
      "inputs": [],
      "name": "getNextPassenger",
      "outputs": [
        {
          "name": "",
          "type": "address"
        }
      ],
      "payable": false,
      "stateMutability": "nonpayable",
      "type": "function"
    },
    {
      "constant": true,
      "inputs": [],
      "name": "getPassengersWaiting",
      "outputs": [
        {
          "name": "",
          "type": "address[]"
        }
      ],
      "payable": false,
      "stateMutability": "view",
      "type": "function"
    },
    {
      "constant": true,
      "inputs": [],
      "name": "getDriversWaiting",
      "outputs": [
        {
          "name": "",
          "type": "uint256"
        }
      ],
      "payable": false,
      "stateMutability": "view",
      "type": "function"
    },
    {
      "constant": false,
      "inputs": [
        {
          "name": "aPassenger",
          "type": "address"
        }
      ],
      "name": "acceptPassengerRequest",
      "outputs": [
        {
          "name": "",
          "type": "bool"
        }
      ],
      "payable": false,
      "stateMutability": "nonpayable",
      "type": "function"
    },
    {
      "constant": false,
      "inputs": [],
      "name": "confirmDriverArrived",
      "outputs": [
        {
          "name": "",
          "type": "bool"
        }
      ],
      "payable": true,
      "stateMutability": "payable",
      "type": "function"
    },
    {
      "constant": false,
      "inputs": [],
      "name": "cancelDriverRide",
      "outputs": [
        {
          "name": "",
          "type": "bool"
        }
      ],
      "payable": false,
      "stateMutability": "nonpayable",
      "type": "function"
    },
    {
      "constant": false,
      "inputs": [
        {
          "name": "name",
          "type": "string"
        },
        {
          "name": "desitnation",
          "type": "string"
        },
        {
          "name": "destprice",
          "type": "uint256"
        },
        {
          "name": "desttime",
          "type": "uint256"
        },
        {
          "name": "asktime",
          "type": "uint256"
        }
      ],
      "name": "addPassengerRequest",
      "outputs": [
        {
          "name": "",
          "type": "bool"
        }
      ],
      "payable": true,
      "stateMutability": "payable",
      "type": "function"
    },
    {
      "constant": false,
      "inputs": [],
      "name": "confirmPassengerPickup",
      "outputs": [
        {
          "name": "",
          "type": "bool"
        }
      ],
      "payable": false,
      "stateMutability": "nonpayable",
      "type": "function"
    },
    {
      "constant": false,
      "inputs": [],
      "name": "cancelPassengerPickup",
      "outputs": [
        {
          "name": "",
          "type": "bool"
        }
      ],
      "payable": false,
      "stateMutability": "nonpayable",
      "type": "function"
    },
    {
      "constant": false,
      "inputs": [],
      "name": "cancelPassengerRequest",
      "outputs": [
        {
          "name": "",
          "type": "bool"
        }
      ],
      "payable": true,
      "stateMutability": "payable",
      "type": "function"
    }
  ],
  "bytecode": "0x608060405261012c60005534801561001657600080fd5b5033600160006101000a81548173ffffffffffffffffffffffffffffffffffffffff021916908373ffffffffffffffffffffffffffffffffffffffff160217905550613b38806100676000396000f300608060405260043610610107576000357c0100000000000000000000000000000000000000000000000000000000900463ffffffff1680631c7c0eb91461010c5780631dd13a1d1461012e578063278fe1341461018957806329c61421146101f55780632be17d26146102625780632e4365a31461028d57806354cde91a146102b8578063586de66a1461030f5780637e5d32a91461033e5780638a10946b1461036d57806398a3f6c614610398578063a738eb2a14610405578063ab94203614610427578063ad83963314610482578063d937f59d146104a4578063dc808f1f1461057c578063deda104b146105e5578063f8cc8e4e146105fc578063f9a30cf11461062b575b600080fd5b610114610686565b604051808215151515815260200191505060405180910390f35b34801561013a57600080fd5b5061016f600480360381019080803573ffffffffffffffffffffffffffffffffffffffff169060200190929190505050610ae9565b604051808215151515815260200191505060405180910390f35b34801561019557600080fd5b5061019e610bb3565b6040518080602001828103825283818151815260200191508051906020019060200280838360005b838110156101e15780820151818401526020810190506101c6565b505050509050019250505060405180910390f35b34801561020157600080fd5b5061022060048036038101908080359060200190929190505050610e81565b604051808273ffffffffffffffffffffffffffffffffffffffff1673ffffffffffffffffffffffffffffffffffffffff16815260200191505060405180910390f35b34801561026e57600080fd5b50610277610ebf565b6040518082815260200191505060405180910390f35b34801561029957600080fd5b506102a2610ecc565b6040518082815260200191505060405180910390f35b3480156102c457600080fd5b506102cd610ed9565b604051808273ffffffffffffffffffffffffffffffffffffffff1673ffffffffffffffffffffffffffffffffffffffff16815260200191505060405180910390f35b34801561031b57600080fd5b506103246113dd565b604051808215151515815260200191505060405180910390f35b34801561034a57600080fd5b506103536116cd565b604051808215151515815260200191505060405180910390f35b34801561037957600080fd5b50610382611999565b6040518082815260200191505060405180910390f35b3480156103a457600080fd5b506103c360048036038101908080359060200190929190505050611a76565b604051808273ffffffffffffffffffffffffffffffffffffffff1673ffffffffffffffffffffffffffffffffffffffff16815260200191505060405180910390f35b61040d611ab4565b604051808215151515815260200191505060405180910390f35b34801561043357600080fd5b50610468600480360381019080803573ffffffffffffffffffffffffffffffffffffffff1690602001909291905050506121fe565b604051808215151515815260200191505060405180910390f35b61048a6122c8565b604051808215151515815260200191505060405180910390f35b610562600480360381019080803590602001908201803590602001908080601f0160208091040260200160405190810160405280939291908181526020018383808284378201915050505050509192919290803590602001908201803590602001908080601f01602080910402602001604051908101604052809392919081815260200183838082843782019150505050505091929192908035906020019092919080359060200190929190803590602001909291905050506129ba565b604051808215151515815260200191505060405180910390f35b34801561058857600080fd5b506105e3600480360381019080803590602001908201803590602001908080601f0160208091040260200160405190810160405280939291908181526020018383808284378201915050505050509192919290505050612cbf565b005b3480156105f157600080fd5b506105fa612f12565b005b34801561060857600080fd5b506106116131b4565b604051808215151515815260200191505060405180910390f35b34801561063757600080fd5b5061066c600480360381019080803573ffffffffffffffffffffffffffffffffffffffff16906020019092919050505061366d565b604051808215151515815260200191505060405180910390f35b600080610692336121fe565b151561069d57600080fd5b600460003373ffffffffffffffffffffffffffffffffffffffff1673ffffffffffffffffffffffffffffffffffffffff16815260200190815260200160002090508060030160149054906101000a900460ff161515610764576040517f08c379a00000000000000000000000000000000000000000000000000000000081526004018080602001828103825260158152602001807f596f7520617265206e6f742061206472697665722e000000000000000000000081525060200191505060405180910390fd5b6003600581111561077157fe5b8160010160009054906101000a900460ff16600581111561078e57fe5b141515610803576040517f08c379a00000000000000000000000000000000000000000000000000000000081526004018080602001828103825260178152602001807f596f7520617265206e6f7420696e2070726f677265737300000000000000000081525060200191505060405180910390fd5b6003600581111561081057fe5b8160010160009054906101000a900460ff16600581111561082d57fe5b1415610ae0576004600581111561084057fe5b8160010160009054906101000a900460ff16600581111561085d57fe5b50506004600260008360040160009054906101000a900473ffffffffffffffffffffffffffffffffffffffff1673ffffffffffffffffffffffffffffffffffffffff1673ffffffffffffffffffffffffffffffffffffffff16815260200190815260200160002060010160006101000a81548160ff021916908360058111156108e257fe5b02179055506000600260008360040160009054906101000a900473ffffffffffffffffffffffffffffffffffffffff1673ffffffffffffffffffffffffffffffffffffffff1673ffffffffffffffffffffffffffffffffffffffff16815260200190815260200160002060080160006101000a81548173ffffffffffffffffffffffffffffffffffffffff021916908373ffffffffffffffffffffffffffffffffffffffff1602179055506000600260008360040160009054906101000a900473ffffffffffffffffffffffffffffffffffffffff1673ffffffffffffffffffffffffffffffffffffffff1673ffffffffffffffffffffffffffffffffffffffff16815260200190815260200160002060070160146101000a81548160ff0219169083151502179055507f0f80cd076a1e4e71e7f9c62c545019fd53b1c6d2743000d380bde356349a33848160040160009054906101000a900473ffffffffffffffffffffffffffffffffffffffff16604051808273ffffffffffffffffffffffffffffffffffffffff1673ffffffffffffffffffffffffffffffffffffffff16815260200191505060405180910390a160008160040160006101000a81548173ffffffffffffffffffffffffffffffffffffffff021916908373ffffffffffffffffffffffffffffffffffffffff16021790555060019150610ae5565b600091505b5090565b6000806003805490501415610b015760009050610bae565b8173ffffffffffffffffffffffffffffffffffffffff166003600260008573ffffffffffffffffffffffffffffffffffffffff1673ffffffffffffffffffffffffffffffffffffffff16815260200190815260200160002060090154815481101515610b6957fe5b9060005260206000200160009054906101000a900473ffffffffffffffffffffffffffffffffffffffff1673ffffffffffffffffffffffffffffffffffffffff161490505b919050565b606060006060600080600460003373ffffffffffffffffffffffffffffffffffffffff1673ffffffffffffffffffffffffffffffffffffffff16815260200190815260200160002093508360030160149054906101000a900460ff161515610c83576040517f08c379a00000000000000000000000000000000000000000000000000000000081526004018080602001828103825260158152602001807f596f7520617265206e6f742061206472697665722e000000000000000000000081525060200191505060405180910390fd5b60016005811115610c9057fe5b8460010160009054906101000a900460ff166005811115610cad57fe5b141515610d22576040517f08c379a00000000000000000000000000000000000000000000000000000000081526004018080602001828103825260148152602001807f4f7065726174696f6e20496e50726f677265737300000000000000000000000081525060200191505060405180910390fd5b60009150600090505b600380549050811015610e775760006005811115610d4557fe5b60026000600384815481101515610d5857fe5b9060005260206000200160009054906101000a900473ffffffffffffffffffffffffffffffffffffffff1673ffffffffffffffffffffffffffffffffffffffff1673ffffffffffffffffffffffffffffffffffffffff16815260200190815260200160002060010160009054906101000a900460ff166005811115610dd957fe5b1415610e6a57600381815481101515610dee57fe5b9060005260206000200160009054906101000a900473ffffffffffffffffffffffffffffffffffffffff168383815181101515610e2757fe5b9060200190602002019073ffffffffffffffffffffffffffffffffffffffff16908173ffffffffffffffffffffffffffffffffffffffff16815250506001820191505b8080600101915050610d2b565b8294505050505090565b600381815481101515610e9057fe5b906000526020600020016000915054906101000a900473ffffffffffffffffffffffffffffffffffffffff1681565b6000600580549050905090565b6000600380549050905090565b6000806000806000610eea336121fe565b1515610ef557600080fd5b600460003373ffffffffffffffffffffffffffffffffffffffff1673ffffffffffffffffffffffffffffffffffffffff16815260200190815260200160002093508360030160149054906101000a900460ff161515610fbc576040517f08c379a00000000000000000000000000000000000000000000000000000000081526004018080602001828103825260158152602001807f596f7520617265206e6f742061206472697665722e000000000000000000000081525060200191505060405180910390fd5b60016005811115610fc957fe5b8460010160009054906101000a900460ff166005811115610fe657fe5b14151561105b576040517f08c379a00000000000000000000000000000000000000000000000000000000081526004018080602001828103825260148152602001807f4f7065726174696f6e20496e50726f677265737300000000000000000000000081525060200191505060405180910390fd5b6000925060009150600090505b600380549050811015611273576000600581111561108257fe5b6002600060038481548110151561109557fe5b9060005260206000200160009054906101000a900473ffffffffffffffffffffffffffffffffffffffff1673ffffffffffffffffffffffffffffffffffffffff1673ffffffffffffffffffffffffffffffffffffffff16815260200190815260200160002060010160009054906101000a900460ff16600581111561111657fe5b14156112665760008214806111a55750816002600060038481548110151561113a57fe5b9060005260206000200160009054906101000a900473ffffffffffffffffffffffffffffffffffffffff1673ffffffffffffffffffffffffffffffffffffffff1673ffffffffffffffffffffffffffffffffffffffff16815260200190815260200160002060060154105b1561126557600260006003838154811015156111bd57fe5b9060005260206000200160009054906101000a900473ffffffffffffffffffffffffffffffffffffffff1673ffffffffffffffffffffffffffffffffffffffff1673ffffffffffffffffffffffffffffffffffffffff16815260200190815260200160002060060154915060038181548110151561123757fe5b9060005260206000200160009054906101000a900473ffffffffffffffffffffffffffffffffffffffff1692505b5b8080600101915050611068565b600073ffffffffffffffffffffffffffffffffffffffff168373ffffffffffffffffffffffffffffffffffffffff161415156113d3576001600260008573ffffffffffffffffffffffffffffffffffffffff1673ffffffffffffffffffffffffffffffffffffffff16815260200190815260200160002060010160006101000a81548160ff0219169083600581111561130857fe5b02179055507fafd976ebfc6607619fe24bafbc4893780b338115720af8e9ccbbba0c4a02673f600260008573ffffffffffffffffffffffffffffffffffffffff1673ffffffffffffffffffffffffffffffffffffffff16815260200190815260200160002060070160009054906101000a900473ffffffffffffffffffffffffffffffffffffffff16604051808273ffffffffffffffffffffffffffffffffffffffff1673ffffffffffffffffffffffffffffffffffffffff16815260200191505060405180910390a15b8294505050505090565b6000806113e933610ae9565b15156113f457600080fd5b600260003373ffffffffffffffffffffffffffffffffffffffff1673ffffffffffffffffffffffffffffffffffffffff16815260200190815260200160002090508060070160149054906101000a900460ff1615156114bb576040517f08c379a00000000000000000000000000000000000000000000000000000000081526004018080602001828103825260188152602001807f596f7520617265206e6f7420612070617373656e6765722e000000000000000081525060200191505060405180910390fd5b600160058111156114c857fe5b8160010160009054906101000a900460ff1660058111156114e557fe5b14151561155a576040517f08c379a00000000000000000000000000000000000000000000000000000000081526004018080602001828103825260158152602001807f4f7065726174696f6e206e6f742070656e64696e67000000000000000000000081525060200191505060405180910390fd5b6001600581111561156757fe5b8160010160009054906101000a900460ff16600581111561158457fe5b14156116c8576003600460008360080160009054906101000a900473ffffffffffffffffffffffffffffffffffffffff1673ffffffffffffffffffffffffffffffffffffffff1673ffffffffffffffffffffffffffffffffffffffff16815260200190815260200160002060010160006101000a81548160ff0219169083600581111561160d57fe5b021790555060038160010160006101000a81548160ff0219169083600581111561163357fe5b02179055507f29d9fee464be63b074c7479476205034c841960b5005f79edd118edb5b770f0e8160080160009054906101000a900473ffffffffffffffffffffffffffffffffffffffff16604051808273ffffffffffffffffffffffffffffffffffffffff1673ffffffffffffffffffffffffffffffffffffffff16815260200191505060405180910390a1600191506116c9565b5b5090565b6000806116d933610ae9565b15156116e457600080fd5b600260003373ffffffffffffffffffffffffffffffffffffffff1673ffffffffffffffffffffffffffffffffffffffff16815260200190815260200160002090508060070160149054906101000a900460ff1615156117ab576040517f08c379a00000000000000000000000000000000000000000000000000000000081526004018080602001828103825260188152602001807f596f7520617265206e6f7420612070617373656e6765722e000000000000000081525060200191505060405180910390fd5b600160058111156117b857fe5b8160010160009054906101000a900460ff1660058111156117d557fe5b14151561184a576040517f08c379a00000000000000000000000000000000000000000000000000000000081526004018080602001828103825260158152602001807f4f7065726174696f6e206e6f742070656e64696e67000000000000000000000081525060200191505060405180910390fd5b6001600581111561185757fe5b8160010160009054906101000a900460ff16600581111561187457fe5b1415611994576005600460008360080160009054906101000a900473ffffffffffffffffffffffffffffffffffffffff1673ffffffffffffffffffffffffffffffffffffffff1673ffffffffffffffffffffffffffffffffffffffff16815260200190815260200160002060010160006101000a81548160ff021916908360058111156118fd57fe5b021790555060008160010160006101000a81548160ff0219169083600581111561192357fe5b02179055507f608065eabc3ed68d9d8e44eb1393e5a34ac4cda2d41b3838da79c36c6bfc189133604051808273ffffffffffffffffffffffffffffffffffffffff1673ffffffffffffffffffffffffffffffffffffffff16815260200191505060405180910390a160019150611995565b5b5090565b6000806000809150600090505b600580549050811015611a6e57600060058111156119c057fe5b600460006005848154811015156119d357fe5b9060005260206000200160009054906101000a900473ffffffffffffffffffffffffffffffffffffffff1673ffffffffffffffffffffffffffffffffffffffff1673ffffffffffffffffffffffffffffffffffffffff16815260200190815260200160002060010160009054906101000a900460ff166005811115611a5457fe5b1415611a61576001820191505b80806001019150506119a6565b819250505090565b600581815481101515611a8557fe5b906000526020600020016000915054906101000a900473ffffffffffffffffffffffffffffffffffffffff1681565b600080611ac0336121fe565b1515611acb57600080fd5b600460003373ffffffffffffffffffffffffffffffffffffffff1673ffffffffffffffffffffffffffffffffffffffff16815260200190815260200160002090508060030160149054906101000a900460ff161515611b92576040517f08c379a00000000000000000000000000000000000000000000000000000000081526004018080602001828103825260158152602001807f596f7520617265206e6f742061206472697665722e000000000000000000000081525060200191505060405180910390fd5b60016005811115611b9f57fe5b8160010160009054906101000a900460ff166005811115611bbc57fe5b141515611c31576040517f08c379a00000000000000000000000000000000000000000000000000000000081526004018080602001828103825260148152602001807f4f7065726174696f6e20496e50726f677265737300000000000000000000000081525060200191505060405180910390fd5b60016005811115611c3e57fe5b8160010160009054906101000a900460ff166005811115611c5b57fe5b14156121f957426000548260020154011115611f0957600060026000600460003373ffffffffffffffffffffffffffffffffffffffff1673ffffffffffffffffffffffffffffffffffffffff16815260200190815260200160002060040160009054906101000a900473ffffffffffffffffffffffffffffffffffffffff1673ffffffffffffffffffffffffffffffffffffffff1673ffffffffffffffffffffffffffffffffffffffff16815260200190815260200160002060010160006101000a81548160ff02191690836005811115611d3257fe5b0217905550600060026000600460003373ffffffffffffffffffffffffffffffffffffffff1673ffffffffffffffffffffffffffffffffffffffff16815260200190815260200160002060040160009054906101000a900473ffffffffffffffffffffffffffffffffffffffff1673ffffffffffffffffffffffffffffffffffffffff1673ffffffffffffffffffffffffffffffffffffffff16815260200190815260200160002060080160006101000a81548173ffffffffffffffffffffffffffffffffffffffff021916908373ffffffffffffffffffffffffffffffffffffffff1602179055506000600460003373ffffffffffffffffffffffffffffffffffffffff1673ffffffffffffffffffffffffffffffffffffffff16815260200190815260200160002060040160006101000a81548173ffffffffffffffffffffffffffffffffffffffff021916908373ffffffffffffffffffffffffffffffffffffffff1602179055507f565dfcb96c43859e65adeb291e3b7a1d517bd7d1f3f16534012fea579aafe4c833604051808273ffffffffffffffffffffffffffffffffffffffff1673ffffffffffffffffffffffffffffffffffffffff16815260200191505060405180910390a1600191506121fa565b60026005811115611f1657fe5b8160010160009054906101000a900460ff166005811115611f3357fe5b1415156121f85760028160010160006101000a81548160ff02191690836005811115611f5b57fe5b0217905550600060026000600460003373ffffffffffffffffffffffffffffffffffffffff1673ffffffffffffffffffffffffffffffffffffffff16815260200190815260200160002060040160009054906101000a900473ffffffffffffffffffffffffffffffffffffffff1673ffffffffffffffffffffffffffffffffffffffff1673ffffffffffffffffffffffffffffffffffffffff16815260200190815260200160002060010160006101000a81548160ff0219169083600581111561202157fe5b0217905550600060026000600460003373ffffffffffffffffffffffffffffffffffffffff1673ffffffffffffffffffffffffffffffffffffffff16815260200190815260200160002060040160009054906101000a900473ffffffffffffffffffffffffffffffffffffffff1673ffffffffffffffffffffffffffffffffffffffff1673ffffffffffffffffffffffffffffffffffffffff16815260200190815260200160002060080160006101000a81548173ffffffffffffffffffffffffffffffffffffffff021916908373ffffffffffffffffffffffffffffffffffffffff1602179055506000600460003373ffffffffffffffffffffffffffffffffffffffff1673ffffffffffffffffffffffffffffffffffffffff16815260200190815260200160002060040160006101000a81548173ffffffffffffffffffffffffffffffffffffffff021916908373ffffffffffffffffffffffffffffffffffffffff1602179055507f565dfcb96c43859e65adeb291e3b7a1d517bd7d1f3f16534012fea579aafe4c833604051808273ffffffffffffffffffffffffffffffffffffffff1673ffffffffffffffffffffffffffffffffffffffff16815260200191505060405180910390a1600191506121fa565b5b5b5090565b600080600580549050141561221657600090506122c3565b8173ffffffffffffffffffffffffffffffffffffffff166005600460008573ffffffffffffffffffffffffffffffffffffffff1673ffffffffffffffffffffffffffffffffffffffff1681526020019081526020016000206005015481548110151561227e57fe5b9060005260206000200160009054906101000a900473ffffffffffffffffffffffffffffffffffffffff1673ffffffffffffffffffffffffffffffffffffffff161490505b919050565b6000806122d433610ae9565b15156122df57600080fd5b600260003373ffffffffffffffffffffffffffffffffffffffff1673ffffffffffffffffffffffffffffffffffffffff16815260200190815260200160002090508060070160149054906101000a900460ff1615156123a6576040517f08c379a00000000000000000000000000000000000000000000000000000000081526004018080602001828103825260188152602001807f596f7520617265206e6f7420612070617373656e6765722e000000000000000081525060200191505060405180910390fd5b600260058111156123b357fe5b8160010160009054906101000a900460ff1660058111156123d057fe5b101515612445576040517f08c379a00000000000000000000000000000000000000000000000000000000081526004018080602001828103825260148152602001807f4f7065726174696f6e20496e50726f677265737300000000000000000000000081525060200191505060405180910390fd5b6000600581111561245257fe5b8160010160009054906101000a900460ff16600581111561246f57fe5b14156125e157600260003373ffffffffffffffffffffffffffffffffffffffff1673ffffffffffffffffffffffffffffffffffffffff168152602001908152602001600020600080820160006124c591906139f3565b6001820160006101000a81549060ff02191690556002820160006124e991906139f3565b60038201600090556004820160009055600582016000905560068201600090556007820160006101000a81549073ffffffffffffffffffffffffffffffffffffffff02191690556007820160146101000a81549060ff02191690556008820160006101000a81549073ffffffffffffffffffffffffffffffffffffffff0219169055600982016000905550507f608065eabc3ed68d9d8e44eb1393e5a34ac4cda2d41b3838da79c36c6bfc189133604051808273ffffffffffffffffffffffffffffffffffffffff1673ffffffffffffffffffffffffffffffffffffffff16815260200191505060405180910390a1600191506129b6565b600160058111156125ee57fe5b8160010160009054906101000a900460ff16600581111561260b57fe5b14156129b55742600054826006015401111561278d57600260003373ffffffffffffffffffffffffffffffffffffffff1673ffffffffffffffffffffffffffffffffffffffff1681526020019081526020016000206000808201600061267191906139f3565b6001820160006101000a81549060ff021916905560028201600061269591906139f3565b60038201600090556004820160009055600582016000905560068201600090556007820160006101000a81549073ffffffffffffffffffffffffffffffffffffffff02191690556007820160146101000a81549060ff02191690556008820160006101000a81549073ffffffffffffffffffffffffffffffffffffffff0219169055600982016000905550507f608065eabc3ed68d9d8e44eb1393e5a34ac4cda2d41b3838da79c36c6bfc189133604051808273ffffffffffffffffffffffffffffffffffffffff1673ffffffffffffffffffffffffffffffffffffffff16815260200191505060405180910390a1600191506129b6565b6002600581111561279a57fe5b8160010160009054906101000a900460ff1660058111156127b757fe5b1415156129b45760028160010160006101000a81548160ff021916908360058111156127df57fe5b02179055508060070160009054906101000a900473ffffffffffffffffffffffffffffffffffffffff1673ffffffffffffffffffffffffffffffffffffffff16600a826003015481151561282f57fe5b045a90604051600060405180830381858888f1935050505050600260003373ffffffffffffffffffffffffffffffffffffffff1673ffffffffffffffffffffffffffffffffffffffff1681526020019081526020016000206000808201600061289891906139f3565b6001820160006101000a81549060ff02191690556002820160006128bc91906139f3565b60038201600090556004820160009055600582016000905560068201600090556007820160006101000a81549073ffffffffffffffffffffffffffffffffffffffff02191690556007820160146101000a81549060ff02191690556008820160006101000a81549073ffffffffffffffffffffffffffffffffffffffff0219169055600982016000905550507f608065eabc3ed68d9d8e44eb1393e5a34ac4cda2d41b3838da79c36c6bfc189133604051808273ffffffffffffffffffffffffffffffffffffffff1673ffffffffffffffffffffffffffffffffffffffff16815260200191505060405180910390a1600191506129b6565b5b5b5090565b6000806129c633610ae9565b156129d057600080fd5b600260003373ffffffffffffffffffffffffffffffffffffffff1673ffffffffffffffffffffffffffffffffffffffff16815260200190815260200160002090508060070160149054906101000a900460ff16151515612a98576040517f08c379a000000000000000000000000000000000000000000000000000000000815260040180806020018281038252601b8152602001807f596f752061726520616c726561647920612070617373656e676572000000000081525060200191505060405180910390fd5b8434101515612b0f576040517f08c379a00000000000000000000000000000000000000000000000000000000081526004018080602001828103825260118152602001807f496e737566666963656e742066756e647300000000000000000000000000000081525060200191505060405180910390fd5b85816002019080519060200190612b27929190613a3b565b5086816000019080519060200190612b40929190613a3b565b5083816005018190555084816003018190555082816006018190555060008160010160006101000a81548160ff02191690836005811115612b7d57fe5b0217905550338160070160006101000a81548173ffffffffffffffffffffffffffffffffffffffff021916908373ffffffffffffffffffffffffffffffffffffffff16021790555060018160070160146101000a81548160ff021916908315150217905550600160033390806001815401808255809150509060018203906000526020600020016000909192909190916101000a81548173ffffffffffffffffffffffffffffffffffffffff021916908373ffffffffffffffffffffffffffffffffffffffff1602179055500381600901819055507f507f8f43c0f6143eb89baca3321ebb8bd05b190931a1bc887f7d77c29d7d8aa933604051808273ffffffffffffffffffffffffffffffffffffffff1673ffffffffffffffffffffffffffffffffffffffff16815260200191505060405180910390a15095945050505050565b6000612cca336121fe565b15612cd457600080fd5b600460003373ffffffffffffffffffffffffffffffffffffffff1673ffffffffffffffffffffffffffffffffffffffff16815260200190815260200160002090508060030160149054906101000a900460ff16151515612d9c576040517f08c379a00000000000000000000000000000000000000000000000000000000081526004018080602001828103825260178152602001807f596f752061726520616c7265616479206472697665722e00000000000000000081525060200191505060405180910390fd5b81816000019080519060200190612db4929190613a3b565b5060008160010160006101000a81548160ff02191690836005811115612dd657fe5b0217905550338160030160006101000a81548173ffffffffffffffffffffffffffffffffffffffff021916908373ffffffffffffffffffffffffffffffffffffffff16021790555060018160030160146101000a81548160ff021916908315150217905550600160053390806001815401808255809150509060018203906000526020600020016000909192909190916101000a81548173ffffffffffffffffffffffffffffffffffffffff021916908373ffffffffffffffffffffffffffffffffffffffff1602179055500381600501819055507f124ea6330ae7950badad4b6fed1e4d15171b12d17ec3305d42902438f5223ec233604051808273ffffffffffffffffffffffffffffffffffffffff1673ffffffffffffffffffffffffffffffffffffffff16815260200191505060405180910390a15050565b6000806000612f20336121fe565b1515612f2b57600080fd5b600460003373ffffffffffffffffffffffffffffffffffffffff1673ffffffffffffffffffffffffffffffffffffffff16815260200190815260200160002092508260030160149054906101000a900460ff161515612ff2576040517f08c379a00000000000000000000000000000000000000000000000000000000081526004018080602001828103825260158152602001807f596f7520617265206e6f742061206472697665722e000000000000000000000081525060200191505060405180910390fd5b60006005811115612fff57fe5b8360010160009054906101000a900460ff16600581111561301c57fe5b14151515613092576040517f08c379a000000000000000000000000000000000000000000000000000000000815260040180806020018281038252601e8152602001807f596f7520617265206e6f742063757272656e746c7920696e616374697665000081525060200191505060405180910390fd5b8260050154915060056001600580549050038154811015156130b057fe5b9060005260206000200160009054906101000a900473ffffffffffffffffffffffffffffffffffffffff169050806005838154811015156130ed57fe5b9060005260206000200160006101000a81548173ffffffffffffffffffffffffffffffffffffffff021916908373ffffffffffffffffffffffffffffffffffffffff16021790555081600460008373ffffffffffffffffffffffffffffffffffffffff1673ffffffffffffffffffffffffffffffffffffffff1681526020019081526020016000206005018190555060058054809190600190036131919190613abb565b5060008360030160146101000a81548160ff021916908315150217905550505050565b6000806131c0336121fe565b15156131cb57600080fd5b600460003373ffffffffffffffffffffffffffffffffffffffff1673ffffffffffffffffffffffffffffffffffffffff16815260200190815260200160002090508060030160149054906101000a900460ff161515613292576040517f08c379a00000000000000000000000000000000000000000000000000000000081526004018080602001828103825260158152602001807f596f7520617265206e6f742061206472697665722e000000000000000000000081525060200191505060405180910390fd5b6003600581111561329f57fe5b8160010160009054906101000a900460ff1660058111156132bc57fe5b141515613331576040517f08c379a00000000000000000000000000000000000000000000000000000000081526004018080602001828103825260188152602001807f4f7065726174696f6e206e6f7420496e50726f6772657373000000000000000081525060200191505060405180910390fd5b6003600581111561333e57fe5b8160010160009054906101000a900460ff16600581111561335b57fe5b141561366857600073ffffffffffffffffffffffffffffffffffffffff168160040160009054906101000a900473ffffffffffffffffffffffffffffffffffffffff1673ffffffffffffffffffffffffffffffffffffffff16141515613569576005600260008360040160009054906101000a900473ffffffffffffffffffffffffffffffffffffffff1673ffffffffffffffffffffffffffffffffffffffff1673ffffffffffffffffffffffffffffffffffffffff16815260200190815260200160002060010160006101000a81548160ff0219169083600581111561343e57fe5b02179055506000600260008360040160009054906101000a900473ffffffffffffffffffffffffffffffffffffffff1673ffffffffffffffffffffffffffffffffffffffff1673ffffffffffffffffffffffffffffffffffffffff16815260200190815260200160002060080160006101000a81548173ffffffffffffffffffffffffffffffffffffffff021916908373ffffffffffffffffffffffffffffffffffffffff1602179055506000600260008360040160009054906101000a900473ffffffffffffffffffffffffffffffffffffffff1673ffffffffffffffffffffffffffffffffffffffff1673ffffffffffffffffffffffffffffffffffffffff16815260200190815260200160002060070160146101000a81548160ff0219169083151502179055505b7f8c16ef6e945f2fccaed8755c54a1ee23a593cb114eeea5e589d7dd0ecb0335448160040160009054906101000a900473ffffffffffffffffffffffffffffffffffffffff16604051808273ffffffffffffffffffffffffffffffffffffffff1673ffffffffffffffffffffffffffffffffffffffff16815260200191505060405180910390a160008160040160006101000a81548173ffffffffffffffffffffffffffffffffffffffff021916908373ffffffffffffffffffffffffffffffffffffffff16021790555060058081111561364057fe5b8160010160009054906101000a900460ff16600581111561365d57fe5b505060019150613669565b5b5090565b600080613679336121fe565b151561368457600080fd5b61368d83610ae9565b151561369857600080fd5b600460003373ffffffffffffffffffffffffffffffffffffffff1673ffffffffffffffffffffffffffffffffffffffff16815260200190815260200160002090508060030160149054906101000a900460ff16151561375f576040517f08c379a00000000000000000000000000000000000000000000000000000000081526004018080602001828103825260158152602001807f596f7520617265206e6f742061206472697665722e000000000000000000000081525060200191505060405180910390fd5b6000600581111561376c57fe5b8160010160009054906101000a900460ff16600581111561378957fe5b141515613824576040517f08c379a00000000000000000000000000000000000000000000000000000000081526004018080602001828103825260258152602001807f596f752061726520696e2070726f6772657373207769746820616e6f7468657281526020017f207269646500000000000000000000000000000000000000000000000000000081525060400191505060405180910390fd5b6000600581111561383157fe5b8160010160009054906101000a900460ff16600581111561384e57fe5b14156139e8576001600260008573ffffffffffffffffffffffffffffffffffffffff1673ffffffffffffffffffffffffffffffffffffffff16815260200190815260200160002060010160006101000a81548160ff021916908360058111156138b357fe5b021790555033600260008573ffffffffffffffffffffffffffffffffffffffff1673ffffffffffffffffffffffffffffffffffffffff16815260200190815260200160002060080160006101000a81548173ffffffffffffffffffffffffffffffffffffffff021916908373ffffffffffffffffffffffffffffffffffffffff160217905550828160040160006101000a81548173ffffffffffffffffffffffffffffffffffffffff021916908373ffffffffffffffffffffffffffffffffffffffff1602179055507fafd976ebfc6607619fe24bafbc4893780b338115720af8e9ccbbba0c4a02673f83604051808273ffffffffffffffffffffffffffffffffffffffff1673ffffffffffffffffffffffffffffffffffffffff16815260200191505060405180910390a1600191506139ed565b600091505b50919050565b50805460018160011615610100020316600290046000825580601f10613a195750613a38565b601f016020900490600052602060002090810190613a379190613ae7565b5b50565b828054600181600116156101000203166002900490600052602060002090601f016020900481019282601f10613a7c57805160ff1916838001178555613aaa565b82800160010185558215613aaa579182015b82811115613aa9578251825591602001919060010190613a8e565b5b509050613ab79190613ae7565b5090565b815481835581811115613ae257818360005260206000209182019101613ae19190613ae7565b5b505050565b613b0991905b80821115613b05576000816000905550600101613aed565b5090565b905600a165627a7a723058204a400176d45c2131bd48888eb32e8b1be5646f3ddd6c17c3c196f458810725c40029",
  "source": "pragma solidity ^0.4.17;\n\nimport \"./Members.sol\";\n\ncontract CasinoDrive {\n    \n    event DriverEnrolled(address driverAddress);\n    event DriverCanceled(address driverAddress);\n    \n    event DriverAborted(address passengerAddress);\n    event DriverAccepted(address passengerAddress);\n    event DriverArrived(address passengerAddress);\n    \n    event PassengerRequest(address passengerAddress);\n    event PassengerCanceled(address passengerAddress);\n    event PassengerPickedUp(address driverAddress);\n    \n    uint cancelTime = 300;\n    address dispatcher;\n    \n    using Members for Members.Passenger;\n    mapping(address => Members.Passenger) passengers;\n    address[] public passengerList;\n    \n    using Members for Members.Driver;\n    mapping(address => Members.Driver) drivers;\n    address[] public driverList;\n    \n    // Constructor, can receive one or many variables here; only one allowed\n    constructor() public {\n        dispatcher = msg.sender;\n    }\n\n    //Driver Routines\n    //\n    /// Enroll a driver\n\n    function isDriver(address driverAddress) public constant returns(bool isIndeed) {\n        if(driverList.length == 0) return false;\n        return (driverList[drivers[driverAddress].listPointer] == driverAddress);\n    }\n\n    function getDriverCount() public constant returns(uint driverCount) {\n        return driverList.length;\n    }\n\n    function isPassenger(address passengerAddress) public constant returns(bool isIndeed) {\n        if(passengerList.length == 0) return false;\n        return (passengerList[passengers[passengerAddress].listPointer] == passengerAddress);\n    }\n\n    function getPassengerCount() public constant returns(uint passengerCount) {\n        return passengerList.length;\n    }\n\n    function addDriverRequest(string name) public {\n        \n        if(isDriver(msg.sender)) revert();\n        Members.Driver storage sender = drivers[msg.sender];\n        require(!sender.isActive, \"You are already driver.\");\n        \n        sender.name = name;\n        sender.state = Members.driverState.Waiting;\n        sender.user = msg.sender;\n        sender.isActive = true;\n        sender.listPointer = driverList.push(msg.sender) - 1;\n        \n        emit DriverEnrolled(msg.sender);\n    }\n    \n    // Remove a driver\n    function removeDriver() public {\n        \n        if(!isDriver(msg.sender)) revert();\n        Members.Driver storage sender = drivers[msg.sender];\n        require(sender.isActive, \"You are not a driver.\");\n        require(sender.state != Members.driverState.Waiting, \"You are not currently inactive\");\n        \n        uint rowToDelete = sender.listPointer;\n        address keyToMove  = driverList[driverList.length-1];\n        driverList[rowToDelete] = keyToMove;\n        drivers[keyToMove].listPointer = rowToDelete;\n        driverList.length--;\n        sender.isActive = false;\n\n    }\n    \n    // Drivers cancel a pending request\n    function cancelDriverRequest() payable public returns(bool) {\n        \n        if(!isDriver(msg.sender)) revert();\n        Members.Driver storage sender = drivers[msg.sender];\n        require(sender.isActive, \"You are not a driver.\");\n        require(sender.state == Members.driverState.Pending, \"Operation InProgress\");\n\n        if (sender.state == Members.driverState.Pending) {\n            if ((sender.accepttime + cancelTime) > block.timestamp) { \n                //under 5 minutes, free cancel\n                passengers[drivers[msg.sender].passenger].state = Members.passengerState.Waiting;\n                passengers[drivers[msg.sender].passenger].driver = address(0); \n                drivers[msg.sender].passenger = address(0);\n                emit DriverCanceled(msg.sender);\n                return true;\n            } else if (sender.state != Members.driverState.PendingCancel) {\n                sender.state = Members.driverState.PendingCancel;\n                //log bad driver rating;\n                passengers[drivers[msg.sender].passenger].state = Members.passengerState.Waiting;\n                passengers[drivers[msg.sender].passenger].driver = address(0);\n                drivers[msg.sender].passenger = address(0);\n                emit DriverCanceled(msg.sender);\n                return true;\n            }\n        }\n    }\n    \n    //Returns next passenger in line.\n    function getNextPassenger() public returns(address) {\n\n        if(!isDriver(msg.sender)) revert();\n        Members.Driver storage sender = drivers[msg.sender];\n        require(sender.isActive, \"You are not a driver.\");\n        require(sender.state == Members.driverState.Pending, \"Operation InProgress\");\n\n        address retPass = address(0);\n        uint lowAsk = 0;\n        for(uint i = 0; i<passengerList.length; i++){\n            if(passengers[passengerList[i]].state == Members.passengerState.Waiting) {\n                if (lowAsk == 0 || passengers[passengerList[i]].asktime < lowAsk) {\n                    lowAsk = passengers[passengerList[i]].asktime;\n                    retPass = passengerList[i];\n                }\n            }\n        }\n        if (retPass != address(0))\n        {\n            passengers[retPass].state = Members.passengerState.Pending;\n            emit DriverAccepted(passengers[retPass].user);\n        }\n        return retPass; \n        \n    }\n    \n    //Returns all waiting passengers\n    function getPassengersWaiting() public view returns(address[]) {\n\n        //if(!isDriver(msg.sender)) revert();\n        Members.Driver storage sender = drivers[msg.sender];\n        require(sender.isActive, \"You are not a driver.\");\n        require(sender.state == Members.driverState.Pending, \"Operation InProgress\");\n\n        address[] memory retPasses;\n        uint passCount = 0;\n        for(uint i = 0; i<passengerList.length; i++){\n            if(passengers[passengerList[i]].state == Members.passengerState.Waiting) {\n                retPasses[passCount] = passengerList[i];\n                passCount+=1;\n            }\n        }\n        return retPasses; \n        \n    }\n    \n    //Return the total drivers waiting\n    function getDriversWaiting() public view returns(uint) {\n\n        uint driverCount = 0;\n        for(uint i = 0; i<driverList.length; i++){\n            if(drivers[driverList[i]].state == Members.driverState.Waiting){\n                driverCount+=1;\n            }\n        }\n        return driverCount; \n        \n    }\n    \n    // Driver accepts passenger request\n    function acceptPassengerRequest(address aPassenger) public returns(bool) {\n        \n        if(!isDriver(msg.sender)) revert();\n        if(!isPassenger(aPassenger)) revert();\n        Members.Driver storage sender = drivers[msg.sender];\n        require(sender.isActive, \"You are not a driver.\");\n        require(sender.state == Members.driverState.Waiting, \"You are in progress with another ride\");\n\n        if (sender.state == Members.driverState.Waiting) {\n            passengers[aPassenger].state = Members.passengerState.Pending;\n            passengers[aPassenger].driver = msg.sender; \n            sender.passenger = aPassenger;\n            emit DriverAccepted(aPassenger);\n            return true;\n        }\n        return false;\n        \n    }\n    \n    // Driver confirms passenger arrival\n    function confirmDriverArrived() payable public returns(bool) {\n        \n        if(!isDriver(msg.sender)) revert();\n        Members.Driver storage sender = drivers[msg.sender];\n        require(sender.isActive, \"You are not a driver.\");\n        require(sender.state == Members.driverState.Driving, \"You are not in progress\");\n\n        if (sender.state == Members.driverState.Driving) {\n            sender.state == Members.driverState.Arrived;\n            passengers[sender.passenger].state = Members.passengerState.Completed;\n            passengers[sender.passenger].driver = address(0); \n            passengers[sender.passenger].isActive = false;\n            emit DriverArrived(sender.passenger);\n            sender.passenger = address(0);\n            return true;\n        }\n        return false;\n        \n    }\n    \n    // Driver cancels a ride in progress - no payment\n    function cancelDriverRide() public returns(bool) {\n        \n        if(!isDriver(msg.sender)) revert();\n        Members.Driver storage sender = drivers[msg.sender];\n        require(sender.isActive, \"You are not a driver.\");\n        require(sender.state == Members.driverState.Driving, \"Operation not InProgress\");\n\n        if (sender.state == Members.driverState.Driving) {\n            if (sender.passenger != address(0)) {\n                passengers[sender.passenger].state = Members.passengerState.Canceled;\n                passengers[sender.passenger].driver = address(0); \n                passengers[sender.passenger].isActive = false; \n            }\n            emit DriverAborted(sender.passenger);\n            sender.passenger = address(0);\n            sender.state == Members.driverState.Canceled;\n            return true;\n        }\n    }\n    \n    //Passenger Routines\n    //\n    /// Request a ride\n    function addPassengerRequest(string name, string desitnation, uint destprice, uint desttime, uint asktime) public payable returns(bool) {\n        \n        if(isPassenger(msg.sender)) revert();\n        Members.Passenger storage sender = passengers[msg.sender];\n\n        require(!sender.isActive, \"You are already a passenger\");\n        require(msg.value < destprice, \"Insufficent funds\"); \n        \n        sender.destination = desitnation;\n        sender.name = name;\n        sender.desttime = desttime;\n        sender.destprice = destprice;\n        sender.asktime = asktime;\n        sender.state = Members.passengerState.Waiting;\n        sender.user = msg.sender;\n        sender.isActive = true;\n        sender.listPointer = passengerList.push(msg.sender) - 1;\n        \n        emit PassengerRequest(msg.sender);\n        \n    }\n    \n    // Passenger confirms the picked up\n    function confirmPassengerPickup() public returns(bool) {\n        \n        if(!isPassenger(msg.sender)) revert();\n        Members.Passenger storage sender = passengers[msg.sender];\n        require(sender.isActive, \"You are not a passenger.\");\n        require(sender.state == Members.passengerState.Pending, \"Operation not pending\");\n        \n        if (sender.state == Members.passengerState.Pending) {\n            drivers[sender.driver].state = Members.driverState.Driving;\n            sender.state = Members.passengerState.Riding;\n            emit PassengerPickedUp(sender.driver);\n            return true;\n        }\n        \n    }\n    \n    // Passenger cancels the picked up\n    function cancelPassengerPickup() public returns(bool) {\n        \n        if(!isPassenger(msg.sender)) revert();\n        Members.Passenger storage sender = passengers[msg.sender];\n        require(sender.isActive, \"You are not a passenger.\");\n        require(sender.state == Members.passengerState.Pending, \"Operation not pending\");\n        \n        if (sender.state == Members.passengerState.Pending) {\n            drivers[sender.driver].state = Members.driverState.Canceled;\n            sender.state = Members.passengerState.Waiting;\n            emit PassengerCanceled(msg.sender);\n            return true;\n        }\n        \n    }\n    \n    // Passenger cancels a pending request\n    function cancelPassengerRequest() payable public returns(bool) {\n        \n        if(!isPassenger(msg.sender)) revert();\n        Members.Passenger storage sender = passengers[msg.sender];\n        require(sender.isActive, \"You are not a passenger.\");\n        require(sender.state < Members.passengerState.PendingCancel, \"Operation InProgress\");\n        \n        if (sender.state == Members.passengerState.Waiting) {\n            delete passengers[msg.sender];\n            emit PassengerCanceled(msg.sender);\n            return true;\n        }\n        \n        if (sender.state == Members.passengerState.Pending) {\n            if ((sender.asktime + cancelTime) > block.timestamp) { \n                //under 5 minutes, free cancel\n                delete passengers[msg.sender];\n                emit PassengerCanceled(msg.sender);\n                return true;\n            } else if (sender.state != Members.passengerState.PendingCancel) {\n                sender.state = Members.passengerState.PendingCancel;\n                if (!sender.user.call.value(sender.destprice/10).gas(msg.gas)()){\n                    //log bad passenger rating;\n                    \n                }\n                delete passengers[msg.sender];\n                emit PassengerCanceled(msg.sender);\n                return true;\n            }\n        }\n    }\n    \n}",
  "sourcePath": "/Users/blockchain/casinocommute/contracts/CasinoDrive.sol",
  "compiler": {
    "name": "solc",
    "version": "0.4.24+commit.e67f0147.Emscripten.clang"
  },
  "schemaVersion": "2.0.1",
  "updatedAt": "2018-08-27T02:44:34.782Z"
}